{
  "contractName": "ExampleTokenCrowdsale",
  "abi": [
    {
      "constant": true,
      "inputs": [],
      "name": "rate",
      "outputs": [
        {
          "name": "",
          "type": "uint256"
        }
      ],
      "payable": false,
      "stateMutability": "view",
      "type": "function"
    },
    {
      "constant": true,
      "inputs": [],
      "name": "cap",
      "outputs": [
        {
          "name": "",
          "type": "uint256"
        }
      ],
      "payable": false,
      "stateMutability": "view",
      "type": "function"
    },
    {
      "constant": true,
      "inputs": [],
      "name": "weiRaised",
      "outputs": [
        {
          "name": "",
          "type": "uint256"
        }
      ],
      "payable": false,
      "stateMutability": "view",
      "type": "function"
    },
    {
      "constant": true,
      "inputs": [
        {
          "name": "",
          "type": "address"
        }
      ],
      "name": "contributions",
      "outputs": [
        {
          "name": "",
          "type": "uint256"
        }
      ],
      "payable": false,
      "stateMutability": "view",
      "type": "function"
    },
    {
      "constant": true,
      "inputs": [],
      "name": "capReached",
      "outputs": [
        {
          "name": "",
          "type": "bool"
        }
      ],
      "payable": false,
      "stateMutability": "view",
      "type": "function"
    },
    {
      "constant": true,
      "inputs": [],
      "name": "wallet",
      "outputs": [
        {
          "name": "",
          "type": "address"
        }
      ],
      "payable": false,
      "stateMutability": "view",
      "type": "function"
    },
    {
      "constant": true,
      "inputs": [],
      "name": "investorMinCap",
      "outputs": [
        {
          "name": "",
          "type": "uint256"
        }
      ],
      "payable": false,
      "stateMutability": "view",
      "type": "function"
    },
    {
      "constant": false,
      "inputs": [
        {
          "name": "_beneficiary",
          "type": "address"
        }
      ],
      "name": "buyTokens",
      "outputs": [],
      "payable": true,
      "stateMutability": "payable",
      "type": "function"
    },
    {
      "constant": true,
      "inputs": [],
      "name": "investorHardCap",
      "outputs": [
        {
          "name": "",
          "type": "uint256"
        }
      ],
      "payable": false,
      "stateMutability": "view",
      "type": "function"
    },
    {
      "constant": true,
      "inputs": [],
      "name": "token",
      "outputs": [
        {
          "name": "",
          "type": "address"
        }
      ],
      "payable": false,
      "stateMutability": "view",
      "type": "function"
    },
    {
      "inputs": [
        {
          "name": "_rate",
          "type": "uint256"
        },
        {
          "name": "_wallet",
          "type": "address"
        },
        {
          "name": "_token",
          "type": "address"
        },
        {
          "name": "_cap",
          "type": "uint256"
        }
      ],
      "payable": false,
      "stateMutability": "nonpayable",
      "type": "constructor"
    },
    {
      "payable": true,
      "stateMutability": "payable",
      "type": "fallback"
    },
    {
      "anonymous": false,
      "inputs": [
        {
          "indexed": true,
          "name": "purchaser",
          "type": "address"
        },
        {
          "indexed": true,
          "name": "beneficiary",
          "type": "address"
        },
        {
          "indexed": false,
          "name": "value",
          "type": "uint256"
        },
        {
          "indexed": false,
          "name": "amount",
          "type": "uint256"
        }
      ],
      "name": "TokenPurchase",
      "type": "event"
    },
    {
      "constant": true,
      "inputs": [
        {
          "name": "_account",
          "type": "address"
        }
      ],
      "name": "getTokensLeft",
      "outputs": [
        {
          "name": "",
          "type": "uint256"
        }
      ],
      "payable": false,
      "stateMutability": "view",
      "type": "function"
    }
  ],
  "bytecode": "0x6080604052674563918244f400006005556802b5e3af16b188000060065534801561002957600080fd5b50604051608080610b5c833981018060405281019080805190602001909291908051906020019092919080519060200190929190805190602001909291905050508084848460008311151561007d57600080fd5b600073ffffffffffffffffffffffffffffffffffffffff168273ffffffffffffffffffffffffffffffffffffffff16141515156100b957600080fd5b600073ffffffffffffffffffffffffffffffffffffffff168173ffffffffffffffffffffffffffffffffffffffff16141515156100f557600080fd5b8260028190555081600160006101000a81548173ffffffffffffffffffffffffffffffffffffffff021916908373ffffffffffffffffffffffffffffffffffffffff160217905550806000806101000a81548173ffffffffffffffffffffffffffffffffffffffff021916908373ffffffffffffffffffffffffffffffffffffffff16021790555050505060008111151561018f57600080fd5b8060048190555050505050506109b2806101aa6000396000f3006080604052600436106100af576000357c0100000000000000000000000000000000000000000000000000000000900463ffffffff1680632c4e722e146100ba578063355274ea146100e55780634042b66f1461011057806342e94c901461013b5780634d05ad6b146101925780634f935945146101e9578063521eb27314610218578063b25d7f541461026f578063ec8ac4d81461029a578063ed5db874146102d0578063fc0c546a146102fb575b6100b833610352565b005b3480156100c657600080fd5b506100cf610420565b6040518082815260200191505060405180910390f35b3480156100f157600080fd5b506100fa610426565b6040518082815260200191505060405180910390f35b34801561011c57600080fd5b5061012561042c565b6040518082815260200191505060405180910390f35b34801561014757600080fd5b5061017c600480360381019080803573ffffffffffffffffffffffffffffffffffffffff169060200190929190505050610432565b6040518082815260200191505060405180910390f35b34801561019e57600080fd5b506101d3600480360381019080803573ffffffffffffffffffffffffffffffffffffffff16906020019092919050505061044a565b6040518082815260200191505060405180910390f35b3480156101f557600080fd5b506101fe6104a2565b604051808215151515815260200191505060405180910390f35b34801561022457600080fd5b5061022d6104b1565b604051808273ffffffffffffffffffffffffffffffffffffffff1673ffffffffffffffffffffffffffffffffffffffff16815260200191505060405180910390f35b34801561027b57600080fd5b506102846104d7565b6040518082815260200191505060405180910390f35b6102ce600480360381019080803573ffffffffffffffffffffffffffffffffffffffff169060200190929190505050610352565b005b3480156102dc57600080fd5b506102e56104dd565b6040518082815260200191505060405180910390f35b34801561030757600080fd5b506103106104e3565b604051808273ffffffffffffffffffffffffffffffffffffffff1673ffffffffffffffffffffffffffffffffffffffff16815260200191505060405180910390f35b6000803491506103628383610508565b61036b82610702565b90506103828260035461072090919063ffffffff16565b600381905550610392838261073c565b8273ffffffffffffffffffffffffffffffffffffffff163373ffffffffffffffffffffffffffffffffffffffff167f623b3804fa71d67900d064613da8f94b9617215ee90799290593e1745087ad188484604051808381526020018281526020019250505060405180910390a3610409838361074a565b61041161074e565b61041b83836107b9565b505050565b60025481565b60045481565b60035481565b60076020528060005260406000206000915090505481565b6000806000600760008573ffffffffffffffffffffffffffffffffffffffff1673ffffffffffffffffffffffffffffffffffffffff168152602001908152602001600020549150816004540390508092505050919050565b60006004546003541015905090565b600160009054906101000a900473ffffffffffffffffffffffffffffffffffffffff1681565b60055481565b60065481565b6000809054906101000a900473ffffffffffffffffffffffffffffffffffffffff1681565b60008061051584846107bd565b600760008573ffffffffffffffffffffffffffffffffffffffff1673ffffffffffffffffffffffffffffffffffffffff16815260200190815260200160002054915061056a838361072090919063ffffffff16565b9050600554811015801561058057506006548111155b151561061a576040517f08c379a00000000000000000000000000000000000000000000000000000000081526004018080602001828103825260228152602001807f6572726f723a20496e76616c696420636f6e747269627574696f6e2076616c7581526020017f652e00000000000000000000000000000000000000000000000000000000000081525060400191505060405180910390fd5b6000821415156106b8576040517f08c379a000000000000000000000000000000000000000000000000000000000815260040180806020018281038252603b8152602001807f6572726f723a2074686572652068617320616c7265616479206265656e20612081526020017f70757263686173652066726f6d2074686973206163636f756e742e000000000081525060400191505060405180910390fd5b80600760008673ffffffffffffffffffffffffffffffffffffffff1673ffffffffffffffffffffffffffffffffffffffff1681526020019081526020016000208190555050505050565b6000610719600254836107f090919063ffffffff16565b9050919050565b6000818301905082811015151561073357fe5b80905092915050565b6107468282610828565b5050565b5050565b600160009054906101000a900473ffffffffffffffffffffffffffffffffffffffff1673ffffffffffffffffffffffffffffffffffffffff166108fc349081150290604051600060405180830381858888f193505050501580156107b6573d6000803e3d6000fd5b50565b5050565b6107c78282610936565b6004546107df8260035461072090919063ffffffff16565b111515156107ec57600080fd5b5050565b6000808314156108035760009050610822565b818302905081838281151561081457fe5b0414151561081e57fe5b8090505b92915050565b6000809054906101000a900473ffffffffffffffffffffffffffffffffffffffff1673ffffffffffffffffffffffffffffffffffffffff166340c10f1983836040518363ffffffff167c0100000000000000000000000000000000000000000000000000000000028152600401808373ffffffffffffffffffffffffffffffffffffffff1673ffffffffffffffffffffffffffffffffffffffff16815260200182815260200192505050602060405180830381600087803b1580156108ec57600080fd5b505af1158015610900573d6000803e3d6000fd5b505050506040513d602081101561091657600080fd5b8101908080519060200190929190505050151561093257600080fd5b5050565b600073ffffffffffffffffffffffffffffffffffffffff168273ffffffffffffffffffffffffffffffffffffffff161415151561097257600080fd5b6000811415151561098257600080fd5b50505600a165627a7a7230582067581cd20b5bd683b30a38c4417e8dcce0f2797185c4a4e61093b2e490f2a1870029",
  "source": "pragma solidity ^0.4.24;\n\n\nimport \"openzeppelin-solidity/contracts/crowdsale/Crowdsale.sol\";\nimport \"openzeppelin-solidity/contracts/crowdsale/emission/MintedCrowdsale.sol\";\nimport \"openzeppelin-solidity/contracts/crowdsale/validation/CappedCrowdsale.sol\";\n\ncontract ExampleTokenCrowdsale is Crowdsale, MintedCrowdsale, CappedCrowdsale{\n\n\t//minimum investor Contribution - 5000000000000000000 ether (5)\n\t//maximum investor Contribution - 50000000000000000000 ether (50)\n\tuint256 public investorMinCap = 5000000000000000000;\n\tuint256 public investorHardCap = 50000000000000000000;\n\n\tmapping(address => uint256) public contributions;\n\n\tconstructor(uint256 _rate,\n\t  address _wallet,\n\t  ERC20 _token,\n\t  uint256 _cap)\n\tCrowdsale(_rate, _wallet, _token)\n\tCappedCrowdsale(_cap)\n\tpublic{\n\t}\n\n  function getTokensLeft(address _account) constant public returns (uint256) {\n    uint256 existingContribution = contributions[_account];\n    uint256 tokensLeft = cap - existingContribution;\n    return tokensLeft;\n  }\n \n  function _preValidatePurchase(\n    address _beneficiary,\n    uint256 _weiAmount\n  )\n    internal\n  {\n    super._preValidatePurchase(_beneficiary, _weiAmount);\n    uint256 _existingContribution = contributions[_beneficiary];\n    uint256 _newContribution = _existingContribution.add(_weiAmount);\n    require(_newContribution >= investorMinCap && _newContribution <= investorHardCap, \"error: Invalid contribution value.\");\n    require (_existingContribution == 0, \"error: there has already been a purchase from this account.\");\n\t  contributions[_beneficiary] = _newContribution;     \n  }\n   \n}\n",
  "sourcePath": "/Users/ashleyhuynh/Documents/blockchain-hw-3/contracts/ExampleTokenCrowdsale.sol",
  "compiler": {
    "name": "solc",
    "version": "0.4.25+commit.59dbf8f1.Emscripten.clang"
  },
  "schemaVersion": "2.0.2",
  "updatedAt": "2019-03-11T16:40:57.391Z"
}